:020000040000FA
:2000000000000420591A0000811A0000831A0000851A0000871A0000891A0000000000002E
:200020000000000000000000000000008B1A00008D1A0000000000008F1A0000911A000020
:200040001D3A000001320000959E0000931A0000931A0000931A00003D370000931A0000BB
:20006000C16B0000931A0000931A00002D3B0000931A00002D3A0000931A0000931A000024
:20008000DD3B0000931A0000931A0000931A0000931A0000931A0000931A0000931A00008D
:2000A000931A0000931A0000931A0000931A0000931A0000931A0000000000000000000032
:2000C000931A0000931A0000931A0000931A0000931A0000931A0000931A0000931A0000B8
:2000E000931A0000931A0000931A00000000000000000000931A000000000000931A00009F
:200100000000000000000000000000000000000000000000000000000000000000000000DF
:200120000000000000000000000000000000000000000000000000000000000000000000BF
:2001400000000000000000000000000000000000000000000000000000000000000000009F
:2001600000000000000000000000000000000000000000000000000000000000000000007F
:2001800000000000000000000000000000000000000000000000000000000000000000005F
:2001A00000000000000000000000000000000000000000000000000000000000000000003F
:2001C00000000000000000000000000000000000000000000000000000000000000000001F
:2001E0000000000000000000000000000000000000000000000000000000000000000000FF
:2002000010B5054C237833B9044B13B10448AFF300800123237010BDC80300200000000051
:20022000D8D8000008B5034B1BB103490348AFF3008008BD00000000CC030020D8D800001A
:20024000A3F5803A704700BF174B002B08BF134B9D46FFF7F5FF00218B460F461348144A57
:20026000121A0CF0F7FE0E4B002B00D098470D4B002B00D098470020002104000D000D4855
:20028000002802D00C48AFF300800CF00BFD2000290000F01DFB0CF0F1FC00BF00000800E9
:2002A000000000000000000000000420C803002010380020000000000000000000B585B0DD
:2002C0000346002101AA44F20100CDE90111039300F004F805B05DF804FB00BF72B6094B44
:2002E0001B68DB0700D500BEBFF34F8F0649074BCA6802F4E0621343CB60BFF34F8F00BF9B
:20030000FDE700BFF0ED00E000ED00E00400FA0572B6024A1368013313607047E403002059
:20032000034A1368013B136003B962B6704700BFE403002010B50446006830B1002103F089
:2003400003FF54F8040F0028F8D110BD38B50488552C054628D007D8002C32D0492C1FD1CF
:2003600085290BD0012038BD5E2C19D1284B1B788B4235D05E232B80012038BD254A264972
:20038000264803F03BFE264804F064F8254B1B78002B32D0244B1B69984704F0F7F8E9E750
:2003A00000232B80032038BD204BDB68002BD9D1184A1949194803F021FE1D4804F04AF802
:2003C000E4E7184A184B14705B699847194B22461868852103F040FF49232B80012038BD15
:2003E0000C4A0D490D4803F009FE134804F032F8124B13489B6A9847BCE70C48802100F065
:20040000D9FF08F085F955232B80012038BD00BF0838002080D10000F0D00000F8D000005D
:2004200008D100000C38002028D30000E803002024D100004C2D002038D100003CD60000D0
:2004400054D1000030B5058883B0044625B100230320238003B030BD2946104803F074FEFD
:200460000F4B00932A4642F23D2341F22E610D4808F088F80C4A0D490D4803F0BFFD41F219
:200480002E610C4803F0BAFD074A0849084803F0B5FD094803F0DEFFD9E700BF4C03002029
:2004A000BD040000040400207CD10000F0D00000F8D0000084D10000A4D100002DE9F0416D
:2004C000079B1A78412A0C461BD15978312918D11A4D1B4E2B681B4F01332B601A4A1B49D7
:2004E0001B4803F08BFD3B6832682968194803F085FD234618491948BDE8F041032208F05C
:2005000031B84E2A09D1597831290AD10C4E0B4D33680C4F01333360E0E7084D084E094F61
:20052000DCE74E2AF9D15B78322BF6D1054F034D3B68034E01333B60D0E700BFF8030020C7
:20054000FC030020000400207CD10000F0D00000F8D00000C8D10000E4D10000040400200D
:200560002DE9F043038883B0044643B1B3F5867F0CD1822910D0012003B0BDE8F0834FF4F2
:2005800086730120238003B0BDE8F08300230380032003B0BDE8F08301F0A8FCBFF35F8F0A
:2005A00019491A4B0E6800220A601F781A70FFB2BFF35F8F164D01F09DFC28680028DED0AD
:2005C000DFF85090DFF8508003E055F8040F0028D5D090F84A3026FA03F3DA07F5D590F862
:2005E000493047FA03F3DB07EFD500F0F9FD0028EBD02B68D9F800200092184642460221BD
:2006000000F08CFDE1E700BF38040020D82C0020400100204C2D0020B906000010B50C4A86
:2006200090F84B30126882B001330092044680F84B30084A03468021203000F06FFD064BCF
:2006400019782246002002B0BDE8104003F004BE4C2D00201D0600000938002010B4094AF1
:20066000094C13681943116021780346012202FA03F30B43DBB2237004485DF8044B03F095
:2006800019BE00BF38040020D82C00207401002010B5044690F84A1090F8490001F04EFAB4
:2006A00010B994F8480010BD01280ABF94F84800002080F0010010BD70B582B0044600F01B
:2006C0008FFD08B902B070BD04F12006304600F087FD05462046FFF7DBFF01280FD0002838
:2006E000F0D1002DEED1304600F060FD0D4B22462846197802B0BDE8704003F0ADBD002D3A
:20070000E0D0094B094A1B68009300253046234684F84B507E2100F001FD054B284622469E
:20072000E7E700BF083800204C2D00201D0600000A380020F8B503F0FDFC304B304C187096
:2007400003F0F8FC2F4B304F187003F0F3FC2F4922682F4B08700025FF2139727B60FD6033
:20076000002A42D02B4E09E091F84A00F9683A72834054F8042F0B43FB60B2B392F84A30A7
:2007800092F84910526C03F01F0343EA41131F2BC6BF03F01F0331464FF0A04103F5E0735C
:2007A00042F08C0241F82350236893F84A1093F8490001F081F9226892F84A3092F84900BD
:2007C00003F01F0343EA4010012102F011FF2168387A91F8492082424FF00103C4D0FF2874
:2007E000C2D054F8042F002AC8D10B48002103F0ABFCBDE8F840044801F0B4B90A3800202E
:20080000400100200838002028040020093800205D060000000300507401002030B5174BD8
:2008200083B000221A6002F043FD00BB002002F05BFD134B134A93E80300FF250090ADF800
:200840000410062400231048ADF8005069468DF802408DF8043003F0FFF858B901210A484C
:2008600003F04EF9084803F03FF903B030BDFFF725FDDBE7FFF722FDF0E700BF3C0400203E
:2008800020D20000B908000028D20000014B1868704700BF3C04002008B5064A136801334D
:2008A000136000F0A5FD00B908BDBDE8084000F07BBD00BF3C040020042800D07047FFF7D8
:2008C000EBBF00BF014B1868C00970473C0400202DE9F04103F050FBFFF7A0FF06F030F9CA
:2008E00003F054FC00216648664FDFF8EC81664D664C674E03F028FC00F006FC0BF058FF78
:2009000008F028F903F040FB03F0B2FD614B1B68984703F017FE7B689847D8F80430984733
:20092000A979EB79226803EB0123022A338023DC594B29686A6819605A605848002103F0C9
:2009400003FC4FF0FF3009F0C3FC2368022B05467FDC03F031FB03F061FE5148FFF7EAFC2E
:200960000BF050FF03F018FC04460BF053FF002CF8D103F027FBF5E74A4A4B494B4803F0FB
:200980003DFB4B4803F066FD2368022BD0DD454A4549464803F032FB464B4748196803F072
:2009A0002DFB2368022BC3DD3E4A3F493F4803F025FBD8F80010414803F020FB2368022BDE
:2009C000B6DD384A3849394803F018FB39683C4803F014FB2368022BAADD324A3249334822
:2009E00003F00CFB37484AF6DF3103F007FB2368022B9DDD2B4A2C492C4803F0FFFA324843
:200A00000E2103F0FBFA2368022B91DD254A2649264803F0F3FA31882C4803F0EFFA2368D9
:200A2000022B85DD1F4A2049204803F0E7FA284803F0E4FA2368022B7FF77AAF284601F022
:200A40006DFC2368022B7FF773AF0A2003F000FD6EE7144A1449154803F0D0FA1D4803F041
:200A6000CDFA2368022B7FF774AF284601F046FC2368022B7FF76DAF0A2003F0E9FC68E722
:200A8000B801002028D30000142D0020E4010020C42C002040D5000044300020F002002051
:200AA00004D2000030D20000F0D00000F8D0000038D200003CD6000070D2000080D2000026
:200AC0008CD2000098D20000B4D20000D4D20000E4D20000FCD20000C4D6000030B590F897
:200AE0002D50012D83B0044613D91F250B4B5B6898470B4B0B4A1B68009380B22346B0FB9F
:200B0000F5F105FB110104F10C0000F007FB03B030BDE91C01258D40013DE7E7A8D60000C8
:200B20004C2D0020C90B00002DE9F8430D468B6892F82C708146906BD3E90068144601F05A
:200B4000ABFB686803F0D0FCA968184801F0AAFC1748294601F0A6FCA36B1B68C3B10023CF
:200B6000A3852046FFF7BAFF1EB13A4649464046B047104A104B1168104A03FB01F3B2EBC6
:200B8000B30F03D30E4B1B68002BFCD1BDE8F88304F10C0000F00AFB2146094801F07CFBB3
:200BA0002146084801F07EFCDEE700BF840100209C01002018070020CDCCCCCCCCCCCC0C4D
:200BC0005005002090010020002835D02DE9F04F836BD3F8008083B00446B8F1000F28D007
:200BE0007C4DD8F8040003F095FCD8F80860FFF74DFED5E90631F6682A689B1B1844013231
:200C00004B1CA8617449EB610C202A6003F09CF90121072003F08CF9704B5B6898470028D7
:200C20000BDAD8F8083023B1052022464146FFF77BFF03B0BDE8F08F704703F0D3F8DFF84C
:200C4000A09190F802A0D9F8046003F0CBF8074603F0D2F801463846B04703F085F9D9F846
:200C600018600746B04778BB002F5BD1D9F81CB0D84748BBD9F8087003F0BEF8B847002852
:200C80006FD0022820D0D8F80830002BD1D00420CBE705F089FF6FF02806361A03E005F01F
:200CA00083FFC64202D5D8470028F8D0D847002870D0D9F81030032101A89847032803D181
:200CC0009DF80630534534D0D8F80830002BB0D094F82D30A9686A690133DBB20132013107
:200CE000A9606A61052BD8F8082084F82D3094F82C3006D90133DBB2002184F82C3084F822
:200D00002D10127A9A4205D8224641460120FFF70BFF8EE72046FFF7E1FED8F8040003F0CA
:200D2000DDFB86E7D9F8086003F066F8B0470028A7D1D8F80830002B3FF47BAF94F82C0005
:200D4000226B6B680130013284F82C00002022630133414684F82D0022466B60FFF7E4FE13
:200D600067E705F021FF6FF018073F1A03E005F01BFFC74202D5D8470028F8D0B047002839
:200D800087D1D847002884D1D9F81430984700283FF47FAFD8F80830002B3FF44AAFE96832
:200DA0006A6994F82C3001310132E9606A610133D8F80820DBB2002184F82C3084F82D1094
:200DC000127A9A42A6D8224641460220FFF7ACFE2FE700BF18070020142D002060D30000D4
:200DE00040D500002DE9F04105460D200F4603F0B3F8064601F0C6FA01210B2003F098F85F
:200E00003D4B1C6814B917E02468ACB13146201D01F0EEF90028F7D0A06B01F057FA0F281A
:200E20001FDD364E1DB1384601220621A847336901333361BDE8F081314801F017FB04466D
:200E40000028EED03146201D01F0CCF9002304F13402C4E90D322848A385214601F0D0F94F
:200E6000DAE7284801F002FB8046002842D0264801F0FCFAC8F8080030B303F00DFBC8F898
:200E80000400E0B10520D8F8086003F057F810F0FF0006BF082333723072C6E90057FFF7EC
:200EA000F5FCF060A06B414601F0AAF9A36B1B689845BFD12046BDE8F041FFF70FBED8F8FE
:200EC0000810114801F0EEFA0C4E0E48414601F0E9FA336901333361A06B01F0F7F9002845
:200EE000A0D12146044801F0D7F92146044801F0D9FA97E7014EEFE750050020180700203F
:200F0000900100209C0100208401002008B5084801F09AFA074801F097FA074801F094FA8D
:200F2000BDE808400548202200210CF093B800BF9C010020840100209001002018070020BC
:200F4000014B1B6A184700BF40D50000014B5B6A184700BF40D5000010B50D4B82B01B6877
:200F600098470C4B04469B6A01A91920984701280BD0002C0198B8BF15248028D4BFC4EBC7
:200F80000000C4F1800002B010BD002002B010BD60D3000040D50000FFF724BF00B583B0F5
:200FA00002F024FF032804D0244B9B689847002802DA03B05DF804FB0D2002F0CDFF20496D
:200FC00001F016F918B902F0CFFF0028F1D00C2002F0C2FF1A4901F00BF90028E9D101F08D
:200FE000DBF990B1072002F0A9FF0028E1D00223ADF8043002F0F6FE124B8278DB688DF83F
:201000000620032101A89847D3E701F0EBF9072002F094FF18B90C4B9B689847C9E70223E4
:20102000ADF8043002F0DEFE064B8278DB688DF80620032101A89847EDE700BF60D300005E
:20104000142D002040D50000C4D6000030B50D4C83B0A56A69461920A84748B901A904205A
:20106000A84738B101F082F9FFF750FF236A984703B030BD0199E36A21F00201019104202A
:201080009847EFE740D50000F8B5038805462BB1452B14D1882916D00120F8BD174B1C687F
:2010A00034B1A168201D00F085F92468002CF8D1134B01221A7045232B800120F8BD0023FF
:2010C00003800320F8BD0D4B1C68002CF3D0231D9A4205D02468231D002CECD09A42F9D19F
:2010E0000648084E214601F0D7F8D4E90523376832600BB1E06998473760DCE73807002072
:20110000D92C00204C2D0020024B03480021196003F01AB838070020A801002070B50E4C73
:20112000049E25784661C0E90623044635B9A1600A482146BDE8704001F062B8084D094BFC
:201140002E682B60043000F035F92E6021460348BDE8704001F054B8D92C00203807002006
:201160004C2D0020A801002070B50C4B1B7804462BB921460A48BDE8704001F041B8094D82
:20118000094B2E682B60043000F01EF92E6021460348BDE8704001F033B800BFD92C00204A
:2011A000380700204C2D0020A801002010B50A4B1B7804463BB9C0E9033321460748BDE849
:2011C000104001F069B8043000F01AF921460348BDE8104001F060B8D92C00203807002042
:2011E00008B5084B1B7823B10069B0FA80F0400908BD0146044801F073F880F00100C0B215
:2012000008BD00BFD92C00203807002010B50446C0B208F0F9FD204610BD00BF70B570B11F
:201220000E46451E002404E0A64206D008F0ECFD013415F8010F0028F6D1204670BD044632
:20124000FBE700BF10B5FFF721FB0B4B1A68D2E9003192680B44191A52B1D2E9003423447D
:201260001B1A9268994228BF1946002AF5D14318024A136010BD00BF400700203C070020BE
:201280002DE9F843038805465BB3592B2CD187292FD0822920D12C4FDFF8B4803C684FF0E4
:2012A0000009CCB1002603E0A3682646A3B11C46204608F075FD0028F6D0E068224688215B
:2012C00002F0CAFF03464046002B2AD002F0F2FFA3682646002BEAD159232B800120BDE832
:2012E000F883194A1360F7E7002303800320BDE8F883154F3968002019B9EDE789680120F9
:20130000D9B1CB689342F9D000B139608B68002BE2D0D868904207BF9B688B6019469B6830
:20132000F5E7E360A3686EB1B3603B68C4F808902BB1FFF787FF3C68B3E73960CCE7034A2B
:201340001360C9E73B60F1E7400700203C070020B801002010B50446104802F0ABFF1049F8
:20136000E3680A684BB142B194420FD0134601E09C420BD09B68002BFAD10A4BA2601B6846
:20138000E3600C60BDE81040FFF75CBF054B1B68E360BDE81040FFF755BF00BFB8010020EB
:2013A000400700204C2D0020014802F083BF00BFB801002010B5044608F0D6FC2046BDE834
:2013C0001040FFF7C7BF00BF10B5044608F0D4FC2046BDE81040FFF7BDBF00BF10B5044610
:2013E00008F0D8FC2046BDE81040FFF7B3BF00BF024B1868003818BF012070474007002084
:2014000010B5124B19688142044614D00B462BB19A68A24206D01346002BF9D10023C4E931
:20142000023310BDA2689A6049B1FFF70BFF0023C4E9023310BD82681A60002AF5D1044B37
:2014400000221A600023C4E9023310BD400700203C070020014B1888704700BFBC03002013
:2014600000283ED0037A022B30B410D00378022B15D00379B3B10024C37913F0030318BF1B
:20148000012301B10C6002B1136030BC7047C579447A037965B90CB9012BF2D0DBB1002349
:2014A0001C46EEE7447A14F0030418BF0124E3E7C4B1032D37D1032C2ED0022C24D143BB6B
:2014C000022D2DD00123032D24D1A4F10204B4FA84F46409D5E7023C012C8CBF00240124AE
:2014E000CFE770474BB9022D08BF0123EAD1A4F10304B4FA84F46409C3E7032D01D0022D9D
:2015000002D123461C46BCE7002BC8D1022DDAD1EDE701230024B4E7002BC0D10123D4E79A
:2015200001231C46ADE7022DC7D1002BF1D1022C4FF00103DBD11C46A3E700BF30B500230D
:201540000B608B80437DDB075CBF01230B70037E012B83B00D46044623D901AA694604F1F1
:201560001000FFF77DFF009B0BB10223EB70019B0BB102236B70E37D03F00303022B03D061
:20158000032B14BF00230823AB70637E03F00303022B03D0032B14BF002308232B7103B069
:2015A00030BDC37D13F0030309D0437E13F0030305D0C38B828B9B1AB3FA83F35B0923754E
:2015C000CBE700BF02280CBF012307230B441A78FF2A184603F1FF3303D18142F7D1012049
:2015E00070470020704700BF30B583B06946FFF7A5FF9DF800309DF801509DF802409DF826
:2016000003109DF804209DF8050002332B4423440B441344184403B030BD00BF70B4437819
:2016200082780578C478DB00120102F0100203F008031343027905F0070564012B4304F06E
:2016400020049201234302F0400213430B7043798579467AC479027A03F001036D0043EAA4
:20166000861305F00205A0002B4300F00C001201034302F03002134370BC4B70704700BF9B
:2016800070B582B00D4604466946FFF757FF04F110002946FFF7C2FF9DF80030012B04BF7C
:2016A000A37EAB709DF801300CBF03200220022B06D1A38B2B54A38B421C1B0AAB54023085
:2016C0009DF8026056B1731E234429181A7801F8012BA34203F1FF33F8D130449DF803300C
:2016E000022B06D1E38B2B54E38B421C1B0AAB5402309DF8046056B1F31D234429180734E4
:2017000013F8012901F8012BA342F9D1304402B070BD00BF30B40278437802F00700C2F3E7
:20172000C005C2F300140870C2F34010C2F380124D708C7003F00105C3F34004C8700A71F8
:20174000C3F38100C3F301129B094D718C71C87130BC0A724B727047012943DD2DE9F04184
:2017600086B00F4603A914460546FFF7D3FF03AB03CB9DF811201B882383206161616AB3DA
:20178000AE1C03A802AA01A9FFF76AFE9DF81380B8F1000F43D0029B002B31D1B8F1020FA9
:2017A000A38367D0B8F1030F4DD09DF81580B8F1000F2CD0019BBBB9A38BE383B8F1020FB8
:2017C0004DD0B8F1030F31D0701B3B1A8742C4E90E6300DA002006B0BDE8F081AB78A37667
:2017E000EE1CCEE700207047717816F8023B029A03EB01239BB2E383002ADFD1A383DDE7FA
:20180000727816F8023B03EB02239BB2C6E71E4904F1080000F0E6FCA4F81E80D4E71A49F8
:20182000204600F0DFFCA4F81C80BEE706F10800034604F1080213F8011D02F8011BB3421F
:20184000F9D10646C0E706F108000346621E13F8011D02F8011FB342F9D10646A5E70A49D6
:2018600004F1080000F0BEFC7378237216F8023B6372A9E70449204600F0B4FC73782370C0
:2018800016F8023B637090E7B8D4000030B591B002F098FA044602F0A9FA6A460146204641
:2018A000FFF75AFF00283ED0044602F06FFAD0B39DF810100B2002F03BFB9DF81310072094
:2018C00002F036FB9DF817308BB1BDF81C50FFF7C1FD854205D0BDF81C204FF6FF739A42D8
:2018E00021D19DF817006946FFF76CFEB0B102A90C2002F029FB9DF815303BB14FF6FF7172
:20190000062002F015FB204611B030BD9DF81A10062002F00DFB204611B030BD69460D20BC
:2019200002F012FBE3E74FF0FF34ECE7F8B505460B2014460E46A84700232074A37496B3C2
:20194000E37463750820A847002701232376A07567740620A847A076FFF77CFDE083092047
:20196000A84701280CBF3B4603236376FFF772FDA0830A20A84701281AD066B90323E375B3
:20198000637E022B0CD0E37DA3F10203B3FA83F35B092375F8BD0223E375637E022BF2D142
:2019A00001232375F8BD0720A8476675E074C9E7E775E5E730B591B00546FFF74BFD4FF6A5
:2019C000FF74A0423AD04022002168460BF042FB02F0CAFA6A4601461A48FFF7A7FF02F0A2
:2019E000C3FA18B3ADF800400C2002F0B5FA014602A800F0F7FB02F0E5F90E9002F0F6F98B
:201A0000034668460F93FFF7EFFD044615B9204611B030BD02F08AF980B102F0E3F9014664
:201A20006846FFF72DFE204611B030BD0D2002F093FA0146684600F0D5FBD5E74FF0FF3434
:201A4000E5E700BF3D3F00000120FFF7B3BF00BF0020FFF7AFBF00BF0649074A074B9B1A4D
:201A600003DD043BC858D050FBDC07F03DFEFEF7EBFB0000E4D8000000000020C80300205C
:201A8000FEE7FEE7FEE7FEE7FEE7FEE7FEE7FEE7FEE7FEE700F01F030121C0F3471099403D
:201AA00000F066B808B501F007FD00B108BDBDE8084001F0B7BC00BF30B583B01446022349
:201AC00001F01F0100228DF8063014F00C0341EA4015ADF8042006D0042B25D0082B27D098
:201AE0000C2B02D103238DF8043014F0030304D0022B15D0012B02D103238DF805300E4AD6
:201B000001A9284601F0E2FC2306284603D401F0DBFD03B030BD012101F06AFD03B030BDED
:201B200001238DF80530EAE701238DF80430DCE702238DF80430D8E7951A000001F01F01F9
:201B400041EA40101F28CABF054B4FF0A04300F01F00D3F8101521FA00F000F00100704716
:201B6000000300500146014800F04ABB4407002070B50C4B1C689CB105460E4601E02468C9
:201B800074B1237AAB42FAD1E36816EA0301F6D063682846002BF2D098472468002CF0D138
:201BA00070BD00BF44070020024B00221A60FFF779BF00BF4407002070B5838CA32B044641
:201BC0002BD016D8002B50D09E2B4AD104F108052846202102F0D0FB01281CD994F8523053
:201BE000472B45D02F4A102100231170A384022070BDBC2B35D100F108050A21284602F024
:201C0000BBFB012807D9BC23A3840A21284602F0B3FB0128F7D8002070BD00F10805202142
:201C2000284602F0A9FB0128F5D994F852302F2BD8D194F85330202B29D0284602F096FB54
:201C40002044002680F851600F2204F1520104F17A000BF00FFA84F88960012384F8903020
:201C6000D1E70023A384032070BD9E238384ADE794F85330452BB5D194F85430542BB1D1A0
:201C800094F85530202BADD1A323A384C7E706490F2204F17A000BF0EDF9002384F88930A7
:201CA000DBE700BF4C350020ACD4000030B5B0F84830622B83B004460BD0752B23D02BB129
:201CC00000230320A4F8483003B030BD6223A0F84830084601910BF0C5F904F12C0502466E
:201CE0000199284602F0F4FA012809D97523A4F84830064928461B2202F0EAFA0128DFD895
:201D0000002003B030BD00F12C05F2E7D8D3000038B5B0F8503004466BB1853B9AB20A2AA2
:201D200029D80A2B27D8DFE803F03E2647262626262611261A00C0F88C307B300AF09AFF48
:201D4000C4F88C00E0B18D23A4F8503028492046FFF7ACFF012849D98F23A4F85030D4F881
:201D60008C3020469847012840D9224A102100231170C4F88C300023A4F85030032038BD10
:201D80001D4B84F8890007CB8525C4F87A0018889B78C4F87E10C4F88220A4F8860084F82B
:201DA0008830A4F8505015492046FFF77FFF01281CD98723A4F85030B4F848305BB1552B63
:201DC0000CD00C4A002310211170A4F84830A4F85030022038BD5523A4F84830084958225E
:201DE00004F12C0002F074FA0128EAD8002038BDF4D300004C3500206CD300004CD400009B
:201E00007CD30000F0B5304D2B7813F0300683B0044614D11A0612D413F040071ED1C8B15B
:201E20001B074DD507F0BCFF00283CD02023C4F88C70214625482B7000F034FB33E05CB1CF
:201E4000224800232146C4F88C3003B0BDE8F04000F028BB20232B7003B0F0BD1B4800F02A
:201E600005FB04460028F5D0194B014604F15205186807F049FD2946272204F1080001952C
:201E800002F0DCFA019904F12C00272202F0D6FAA4F85060C4F88C6084F890604FF4A06110
:201EA000204607F061FF2046FFF786FE94F89030012BD1D1204603B0BDE8F040FFF728BFA0
:201EC00007F068FFEFE700BF4C350020C80100205835002008B54FF4A04007F0FFFCBDE861
:201EE0000840014800F0B0BAC8010020EFF3108072B6704780F31088704700BF70B41A4AB4
:201F00001A4D0023012440FA03F1C90712D59178B9B11178567801F01F0141EA46111F2988
:201F2000C6BF01F01F012E464FF0A04604FA01F1C6F808150133042B02F10302E3D170BC6C
:201F400070471178567801F01F0141EA46111F29C6BF01F01F012E464FF0A04604FA01F179
:201F6000C6F80C15E6E700BFE4D00000000300500E4A30B40E4D02F10C04032013785178DE
:201F800003F01F0343EA41131F2BC6BF03F01F0329464FF0A04103F5E0730332944241F8A9
:201FA0002300EBD130BC0F20FFF7A8BFE4D000000003005010B50948FFF7D6F8084800F0A9
:201FC00077FB50B1064C01460B7A5B080B72204600F03AFB01460028F6D110BDF42C0020C2
:201FE000D40100200146014800F090BBD401002080B110B50446FEF749FC2368C01AB0F5A8
:20200000963F05D2207A032894BF0020012010BD002010BD0020704770B50546144689B126
:20202000022907D006290CD10146BDE870402A4800F06CBB0146284800F068FB06460028EF
:2020400032D170BD0146244800F060FB0646002835D0FEF71BFC337A30602344102BA8BF87
:2020600010233372FEF712FC3368C01AE401B0F5963FA4B208D2337A042BB38834BF19223C
:202080000A222BB9B48070BDB3881922002BF9D002FB04F41149C2F1640203FB0242A1FB1F
:2020A00002325209B28070BDFEF7F0FB337A30602344102BA8BF102333720C34D2E73346C2
:2020C00005482946082200F081FB06460028B8D047F6FF73C380BCE7D40100201F85EB5148
:2020E00038B50546042001F029FF29460446214824B200F00BFB38B3B0F9063047F6FF7205
:2021000093422CD004EB840462005A251A4C818813FB052384FB0324DB17C3EB641424B25D
:20212000C48081B904F15A0212B222EAE2721E2A124BA8BF1E22D201A3FB0232120902F5A9
:20214000807292B2828038BD034629460948082200F03CFB0028F6D047F6FF73C38083880D
:20216000C480002BEFD147F6FF739C42DAD14FF48072E7E7D40100201F85EB5189888888FF
:2021800038B5094800F094FA60B1074D04462146284600F089FB2146284600F055FA04462D
:2021A0000028F4D138BD00BFD401002000B5002183B0084800F026FA074B084A1B68009366
:2021C000074800234FF4E131FEF7A8FF03B05DF804FB00BFD40100204C2D0020B51F000074
:2021E000F42C00200B684A6842600360704700BF08B508220AF0F8FEB0FA80F0400908BD00
:202200000368DBB110B4002400E0134699420FD01A681C46002AF8D100230B600368CBB1A0
:202220001A461B68002BFBD111605DF8044B70470A686CB1226000221A60EDE700230B60E9
:2022400003684BB11A461B68002BFBD1116070470260F0E70160E8E70160704730B4056843
:202260004DB12B46002400E01346994207D01A681C46002AF8D10D6030BC016070470A6826
:202280003CB1226000221A6005680D6030BC016070470260F6E700BF03689BB110B40024B8
:2022A00000E0134699421A6805D01C46002AF8D15DF8044B704734B1226000221A605DF8AB
:2022C000044B704770470260F7E700BF03682BB100201B680130002BFBD170471846704764
:2022E000006848B1884202D105E0814203D000680028FAD170470120704700BF00B58BB0CC
:202300000246282168460AF0BDF96946024801F075FE0BB05DF804FBC0D40000F0B170B508
:202320000024104E054654B1E3070DD5295D304601F064FE072C10D00134002CF4D12978D6
:20234000304601F05BFEF7E72E2002F081F8295D304601F053FE072CEED170BD024801F08E
:202360004DBE00BFD4D40000C4D4000008B5034B5B689847024B187008BD00BFA8D60000CF
:20238000DA2C0020034B197806204A1C1A7001F0CFBD00BFDA2C0020F8B5FEF777FA104E4F
:2023A0000746344600250C2001F0D6FD2146FFF71FFF103420B90135102DF4D10020F8BD9C
:2023C000062006EB051501F0B9FD2B7B8342F5D1A868381AB0F5206F8CBF00200120F8BD1D
:2023E00034090020F8B5174E0024374635460C2001F0B2FD2946FFF7FBFE1035F8B90134FD
:20240000102CF4D10F2407EB0414254654F8100D6168A268E368A6420FC5F6D1062001F0F2
:202420008DFD3873FEF732FA0346BB600C2001F093FDBDE8F84001460248FFF7D3BE002C14
:20244000E1D1EBE73409002010B504464288406800210AF0FFFD23886288A06802FB03F274
:20246000BDE8104000210AF0F5BD00BF30B44588ADB14368002202E00132AA420CD01946C3
:2024800001330C78002CF7D101230B700588806802FB050030BC7047002030BC70472846A6
:2024A000F8E700BF30B44488826854B18A420CD00588002301E0914208D00133A3422A4474
:2024C000F9D14FF0FF3030BC704700234268D15C0029F6D00020D05430BC704783688B4299
:2024E00008D84288008800FB023081422CBF00200120704700207047418849B14368002072
:20250000194413F8012B02B901308B42F9D170470846704738B50D4B0D4D1C68002818BFC6
:2025200005463CB1211D2846FFF762FE28B92468002CF7D14FF0FF3038BD064A064B906804
:20254000241AA01003FB00F038BD00BF640A0020B8D40000E8010020ABAAAAAA2DE9F84FC2
:20256000224CDFF89CA0DFF88C90214F0546884604F1200B54F8043FBBB19E68AEB1A5B188
:20258000D9F80820AA1A91100C3207FB01F10CD05A68D86802FB010038B11AF801201B6830
:2025A00042FA03F3DB0700D5B0475C45E2D1D5B1104B0F4A9B68EB1A9B1002FB03F30E49B0
:2025C0000E480022CA5429460AF80320FFF764FEB8F1000F01D1BDE8F88F29460548BDE862
:2025E000F84FFFF75FBF4FF0FF33E8E7300A0020ABAAAAAAE8010020540A0020640A002028
:202600003C0B002038B10368072B04D80C4A52F82330984210D00B4A1368072B0AD830B47C
:20262000074C03605D1C8160156044F82300012030BC70470020704781600120704700BFA3
:20264000340A0020380B0020F0B5164B164D9C68164E20B301B3C768D0F804C0C91B91FB36
:20266000FCF101EB4102013119D014EB820314D054F82230A3EB040E4FEAAE0205FB02F2A0
:202680000CFB02714BB11EF10C0F08D021B1B35C02681341DB07DCD50B461846F0BD002311
:2026A0001846F0BDE8010020ABAAAAAA3C0B0020124B1968F9B1124B9B68C91AD0B111F1A8
:2026C0000C0F17D010B40F4B4468C268891003FB01F304FB032149B10B4C0268E35C134108
:2026E000DB0703D508465DF8044B70475DF8044BFFF7AABF0021FFF7A7BF00BF640A0020AA
:20270000E8010020ABAAAAAA3C0B002010B504460846FFF7FFFE84B1431C02460DD06368CC
:20272000E06803FB020038B1054B21689B5C0B4113F0010F08BF002010BD002010BD00BFD9
:202740003C0B00202DE9F84316460D46FFF7DEFF28B10024012006B13460BDE8F88304466C
:202760002846FFF7D7FE0130F3D11448FFF7C4FE0028EED1124B1D68F5B1DFF84C90DFF81E
:202780003C80104F06E02046291D03F0FDFB04462D686DB1D8F80830EB1A9B1007FB03F3F4
:2027A00019F80330002BF3D1002CECD12C1DEFE7201E18BF0120CEE72046CCE7E8010020D1
:2027C000640A0020ABAAAAAA540A00202DE9F04182B060B32F4B0C46002908BF1C46214633
:2027E00001AA0546FFF7AEFF08B32046FFF792FE461C21D06A68EC6800FB02440021204658
:202800000AF028FCEB686A68E31A93FBF2F35A1C06D021492D68C85C0122AA400243CA5426
:20282000204602B0BDE8F081B8F1000F1DD10024204602B0BDE8F081184FDDF80480384634
:20284000FFF714FE06460028EED015483146FFF7D7FCBB682146301DF41AFFF7C3FC14F102
:202860000C0F12D16A680024C8E74046FFF752FE411CDCD0BB6800EB400013EB8006D6D068
:2028800000213046FFF76AFEDFE7064BA01003FB00F0AFE7B8D400003C0B0020E8010020FC
:2028A000640A0020ABAAAAAA18B319B3C3684268CB1A93FBF2F35A1C1CD070B40F4E0568CD
:2028C000F45C012202FA05F524EA0504F454C3684468CB1A93FBF4F3591C0DD0084C0068F1
:2028E000E15C02FA00F021EA0001E154104670BC70477047002070471046F8E73C0B00200B
:20290000540A002098B199B1C2684368891A91FBF3F14B1C0CD010B4064A0368545C01202B
:2029200000FA03F3234353545DF8044B7047704700207047540A0020A0B1A1B1C2684368BB
:20294000891A91FBF3F14B1C0DD010B4074C0268635C012000FA02F223EA020363545DF8B3
:20296000044B704770470020704700BF540A002088B179B1C3684068C91A91FBF0F14B1C99
:2029800008D0054B986801EB410110EB810002D00430704700207047E801002070B50B4B4D
:2029A0001C685CB105460E46012D09D01DB963680BB1984718B92468002CF5D1002070BD08
:2029C000A3683046002BF6D09847F3E74C0B0020064B074A01211960D2F8503513F0FF03C4
:2029E000FAD1C2F8FC3F0120704700BF1010004000100040A1B1192810D8DFE800F00D771A
:202A00000F0F6E65605B453F0F3A0F0F0F36322E2A0F26221E1A17130020704701207047E8
:202A2000022070477D230B600020704700200860704710230B60002070470A230B6000206F
:202A4000704720230B600020704703230B600020704708230B6000207047D8230B600020DF
:202A600070471A230B60002070470B230B6000207047244B1B780B6000207047224B93F973
:202A800000300B6000207047204B214A012082B018601368002BFCD00020106012681D4B3F
:202AA0000192019AD3F8483503F07F035B420B6002B07047184B5B790B6000207047164BE0
:202AC0005B780B6000207047134BDB7800200860002BA1D001230B6070470F4B1B780020B9
:202AE0000860002B98D004230B607047094B0B4AD3F80835A2FB03239B080A33DBB20B6046
:202B000000207047DB2C0020DC2C0020141000401C1100400010004004020020CDCCCCCC17
:202B20000120704770B582B0FFF7E0F9BFF35F8F1C4B1B78ABB11C4B1C4902224FF0FF343F
:202B4000C1F80843C3F88021C3F88020BFF34F8FBFF36F8FBFF35F8F02B0BDE87040FFF7DD
:202B6000C9B9134903F0FF020A600968114B019101991A601A680D490B4B00924FF0FF3573
:202B800002224FF44054009EC1F80853C3F88021C1F804431A60BFF35F8F02B0BDE870400B
:202BA000FFF7A8B90402002000E100E0001000403011004034110040144BD3F8FC0F28B173
:202BC000D3F85035DBB2032B01D000207047104B1B7803F0FF0073B10E4B1B78053B7A2B6D
:202BE000F3D80D4B1B68002BEFD10C4B1868B0FA80F040097047074A1378053B7A2BE5D8D5
:202C000092F8800080F00100704700BF0010004004020020500B00203011004034110040CC
:202C20000D2801D001207047042A05D121B1034B1B680B600020704702207047D40B0020F5
:202C400070B51B4CD4F85055EDB2032D82B028D0184B1948194AC4F804051949C3F8102540
:202C600001264FF00062C3F81415C3F80465C3F80425FFF757FFD4F8003243F01003C4F854
:202C80000032D4F80032022D43F40023C4F8003209D00C4B0C4A002119601B680193019BBA
:202CA000166002B070BD094B1E6002B070BD00BF0010004000F00140500B002038110040CA
:202CC0004C80004058110040041000400810004070B5304D304C314A00232B6084B02D6883
:202CE0000095009D236024680194019C1360146802942B4D029C42F8043C2C7852F8043C1E
:202D00000393631F7A2B039A02D8023CA1420ADA8122002122480AF09DF9FFF791FF002412
:202D2000204604B070BD2246691C0AF06BF92B191C4E5B781C4A3F2B9ABF9B00DBB2FF230D
:202D40003370D2F84835194A03F07F035B425BB299B20420137001F0EBF83178032001F084
:202D6000E7F8134B2A7813491A74D1F84C055860D1F8481599605200DA605D680848812255
:202D80000021023D1D600AF065F9FFF759FF204604B070BD381100400C11004034110040FE
:202DA000500B0020DB2C002000100040DC2C0020D40B00200080004010B5038804461BB3D2
:202DC00040F2D332934224D1822901D0012010BD124A1378053B7A2B16D8114B1B6813B923
:202DE00092F8803083B109F015FD01F033F800F0E9FF8021FFF76CFF002805DD80B200F038
:202E0000DBFF084BDB68984740F2D3332380012010BD00230380032010BD00BF500B0020CA
:202E20003011004028D300007D2910B50C4609D801460A48A31C00F8013B22460AF0E2F8B0
:202E4000002010BD064A0749074801F0D7F821467D22064801F0D2F8012010BDE80B0020C6
:202E6000DCD40000ECD40000F8D00000F0D4000070B4164B1649174C0F22C3F810258A78EC
:202E80000A3A02EB8202C3F808250879CD798A794979120642EA0522024342EA0142C3F82F
:202EA0006C2640F2022600250B48C3F834657F2140F20122C3F83845C3F83C55C3F814050D
:202EC000C3F81815C3F8502670BC70470010004004020020211001000800000608B5084B30
:202EE000D3F8FC2F1AB1FFF7ABFE012008BD0122C3F8FC2FFFF7BCFFFFF7A2FE012008BD56
:202F00000010004030B585B0FFF7E8FF104A11491148124C0023136015680395039D0B6049
:202F20000D680295029D03600368019301230198236001E00B6813B91368002BFAD0044A66
:202F4000044B10681B68B0FA80F0400905B030BD48110040441100404C1100402C100040DB
:202F600010B5072867D8DFE800F01A2A666648525A04364A3648C9B25171D0F8FC3F5BB115
:202F80001179D479937952791B0643EA04230B4343EA0243C0F86C360024204610BD012973
:202FA0004FD000294AD12B4A294B01211160D3F8504514F0FF04FAD1C3F8FC4FEDE7A1F194
:202FC0000B030F2B3AD8214A214BC8B29070D3F8FC2F002AE0D01F4A01201060D3F850451C
:202FE00014F0FF04FAD10A3901EB8101C3F8FC4FC3F80815FFF772FFCFE731F007041DD139
:20300000124BC1F380011970FFF78CFDC5E731F0010413D10D4BC9B2D970204610BD0B4ABC
:203020000B4BC9B25170D3F8FC2F002AB4D0C3F80C150024B1E70124204610BD02242046DE
:2030400010BDFFF74BFF0024A7E700BF04020020001000401010004010B57D2884B04BD85B
:203060002C4CFFF73BFFE378002B3FD163782A4A2A49DBB20120C2F80C350860D2F85035F0
:20308000DBB2022BFAD12649264BC2F8043500230B600868019001980B66086E029002989D
:2030A0008B648B6C0393039BD2F8003223F01003C2F80032D2F80032012143F48023C2F836
:2030C0000032116003F070FD6FF002031C1A03F06BFDE042FBD4104AD2F85035DBB20B2B9B
:2030E000FAD0FFF7ADFD002004B010BDFFF70AFF0028BBD10220F7E70B4A0C4904460C48CA
:2031000000F07CFF21460B4800F078FF012004B010BD00BF04020020001000400C100040F0
:203120000C110040E80B0020DCD40000ECD40000F8D000000CD5000010B50C46FFF774FE87
:203140002046BDE81040FFF787BF00BF10B51A491A481B4A1B4C00230B6003704B60237084
:203160008B6082B0CB600B741360136800934FF080430121009819601368002BFCD000243C
:2031800014601368019321460F48019B00F0DCFF214681220D4809F05DFF0D4B0122C3F89D
:2031A000FC2FFFF765FE0B4A1378DBB21370FFF7B9FC204602B010BDD40B0020DB2C0020E5
:2031C00000010040DC2C0020F4010020500B00200010004004020020074A1378053B7A2BBF
:2031E00007D8064B1B6813B992F880007047012070470020704700BF500B00203011004025
:20320000154B1B7803B1704700B503F0FF02134B196883B029B9124B1A6882B903B05DF891
:2032200004FB1A601B6800930E480F4B009A012283F8802003B05DF804EB01F03BB8196023
:203240001B68019381220848019B09F003FF03B05DF804EBFFF7F4BC040200203011004089
:2032600034110040F4010020500B002010B568B90E4CA368012262703BB1D3E9002300200E
:20328000A2609847A368002BF7D110BD0128FCD1064C2369A070002BF7D0D3E900230120AC
:2032A000226198472369002BF7D110BD680C002010B50B4C237882B013B1852002B010BDFB
:2032C00008486360A3602361E36000F03BF8019000F044F801980123237002B010BD00BFA3
:2032E000680C00206D32000038B5154DAB78044673B110B14368012098470020FDF708F83B
:20330000EB680133EB600020BDE83840FDF708B803F0FF00FCF7FCFF64B12A6942B1944299
:2033200008D0134601E09C4204D01B68002BFAD122602C61EB68002BE2D100F025F8DFE73D
:20334000680C0020044A137923B901211060918018467047852070477C0C0020084B1A6892
:20336000D20704D4C02283F8002301221A60054A4FF080410123C1F818351370704700BF0D
:2033800000E100E00B38002010B4094B094A0021196083B01B680193019C4FF080410220FB
:2033A0000123C1F80403136003B05DF8044B7047040100400800004010B5174B1A6882B040
:2033C00062B10021154A19601B68507900934FF080410123009CC1F8083398B1104B1A6828
:2033E000BAB100221A601B6801934FF0804202210A4B0198C2F808131B68012002B0BDE8CD
:2034000010401847116853718847054B1A68002AE7D102B010BD00BF000100407C0C002016
:203420000401004030B41F4C94F86A3082B0002B33D104F12F03204604F15F01FF2203F873
:20344000012F8B42FBD14FF0FF3222600123072B88BFE11803F1010340F8042F88BF81F8F8
:2034600058200C2BF3D11049104B0020C0228880606683F8062340221A600D4B0D4A1860AE
:203480001B680193019D01214FF0004384F86A10C2F8043302B030BC7047082002B030BCD1
:2034A000704700BF840C0020E80C002000E100E07C61004000600040034B93F86A000038D9
:2034C00018BF0120704700BF840C0020F0B4454F3B1893F93030002B5DDA91F802C0CCF3EB
:2034E000400CBCF1000F0CBF0823002307EB8304A4F104040CBF0C26082602E001339E4274
:203500004CD954F8045F0135F8D13C1847F8232084F83030BCF1000F4FD08A7854071AD400
:20352000D5074ED41F284C7887BF2F4D00F01F0202464FF0A04502F5E072A40045F82240B7
:203540002A4DC40800F0070C2E5D012202FA0CF232432A558A7812F0020222D09B0003F100
:20356000804303F5C0430978D3F8104524F44F3424F44074C3F8104502020904D3F8100584
:2035800001F4403102F47C520A430243C3F810250020F0BC70470820F0BC70470420F0BCA1
:2035A0007047083B1F44097897F8603043EA811387F860301046F0BC7047FA1882F85800A1
:2035C000ABE71F2887BF084A00F01F0404464FF0A04202EB8402D2F8004724F00204C2F8A4
:2035E0000047ADE7840C002000030050E80C002070B4324C251883B095F93030072B22DDA8
:20360000234493F858309B09032B46D0012B0CBF4FF400324FF440321F288ABF284B4FF0E5
:20362000A04300F01F0003EB8000D0F8003723F44033C0F80037D0F800371A43C0F8002777
:2036400003B070BC7047DAB2072AF9D8980000F1804000F5C04003F140029200D0F8106503
:2036600092B202F1804202F5C04246F00106C0F810650020106012680192019A0029DFD0DE
:2036800095F9302054F82220002AD9D00D49012202FA03F3C1F80433D2E71F288ABF084AF5
:2036A0004FF0A04200F01F03D2F8102598BF0346DA4002F0010202321204ADE7840C00209B
:2036C0000003005000600040194B034493F93030072B13DD1F288ABF164B4FF0A04300F03B
:2036E0001F0003EB8000D0F8003723F44033C0F80037D0F80037C0F800377047DAB2072A63
:2037000014D810B49A0002F1804202F5C0420A4CD2F81005012120F0010001FA03F3C2F89E
:203720001005C4F808335DF8044B7047704700BF840C002000030050006000402DE9F04FB4
:20374000002289B0CDE9022216461546704B714C7148012204E0043383424FEA420211D0EB
:2037600019680129F7D1D4F804131142F3D01D60196800910433834246EA020600994FEA48
:203780004202EDD1654B1A68012A07D016F0FF0F17D1002E32DB09B0BDE8F08F00221A6043
:2037A0001B6801934FF0A042019BD2F810255C4B0292D3F81035039316F0FF0F1ED046F01D
:2037C0000046584F01250024A30003F180432E4203F5C0434FEA45050BD0D3F8100557F860
:2037E0002420D3F81015C0F30520C1F3014102B190470134082CE7D1002ECCDA4FF0FF33D7
:20380000494D0DF1100ACDE906330022CAF804200492A5F16408454C0027012614F9010B73
:20382000431C32D0C0F3C20E08AB03EB0E0C00F007031CF8081C06FA03F31942C2B200F002
:203840003F0022D008EB0009910999F9309058F82990B9F1000F4CD003294CD01F288BBF98
:20386000DFF8BCE04FF0A04E02F01F0202460EEB82021CF818ECD2F800C71EEA030FCCF34E
:20388000014C1BD1BCF1030F3CD0A542C6D1002F81D04FF0A0430299D3F81035204A994214
:2038A000D2F8102503D1039991423FF474AFDDE90401CDE90232CDE90601ACE7BCF1020FAD
:2038C000E3D1032904D0B9F1000FDED0C847DCE74FF4403CD2F8003723F44033C2F80037C0
:2038E000D2F8003701374CEA0303FFB2C2F80037E9E70329C9D11AF80EB04BEA030B0AF806
:203900000EB0ABE70329DED14FF4003CE2E700BF0061004000600040206100407C61004056
:2039200000030050840C0020E80C0020E40C002010B54FF0804386B0D3F80443620705D50E
:20394000D3F8082103F58473002A4ED1A30603D52A4B1A68002A3FD1600603D5284B1A6856
:20396000002A2FD1210602D5264B1A680ABBE20502D5254B1A6892B9A3050ED5234B1A68F1
:203980005AB100221A601A68214B0592059A1B68022006B0BDE81040184706B010BD002208
:2039A0001A601B4A1B68049301201368049A9847E2E700201860164A1B6803931368039A03
:2039C0009847D4E700221A60124A1B68029301201368029A9847C5E7002018600D4A1B6808
:2039E00001931368019A9847B6E700221A600A4A1B6800931368009A9847A7E714010040C4
:203A0000180100401C0100402001004024010040F80C0020F40C0020F00C002008B5FFF717
:203A200087FFBDE80840FFF7C7BC00BF074B0849084A0020186082B01B680193019BD1F8A0
:203A400008051368C0B202B0184700BF00D1004000D00040FC0C002070B443791E4C1F4E9C
:203A600003EB430546F82320655D8DBB90F904308A78002B24DB03F1604303F56143520116
:203A8000D2B283F8002390F90430002B07DB144D03F01F0601225B09B24045F8232003685D
:203AA0000A88C3F8082543790879C97803EB4303E218012550709170E554002070BC7047BD
:203AC000084D03F00F0352011D44D2B22A76DAE7082070BC704700BF000D0020040D0020CB
:203AE00000E100E0FCEC00E00368044A01211960437903EB43030221D1547047000D0020CD
:203B000010B403680022C3F8002183B0D3F80031026801930123019CC2F8443311B102682D
:203B2000C2F8043303B05DF8044B70472DE9F041274F284EDFF8A08084B000244FF480350C
:203B4000D7F804332B4211D056F824200023E0B262B1C7F84853C7F8085346F8243056F863
:203B600024300393D8F80030039A98470134032C4FEA4505E4D1164BD3F80423D10702D541
:203B8000D3F80021C2B9124BD3F80423920710D5D3F804216AB10022C3F80421D3F80421F4
:203BA0000D4B0192019A1B68052004B0BDE8F041184704B0BDE8F0810022C3F80021064AD6
:203BC000D3F80031029304201368029A9847DAE700B0004040B10040040D002010B5074C0F
:203BE000236882B03BB1064B1B6898470023236023680193019B02B010BD00BF0001014088
:203C0000080D002070B5114B114A1D781160DDB9104E027801211970C6F80C254168044692
:203C20004FF47A720023C803490C09F061F8C6F80405237A084A5B01DBB282F810334FF421
:203C400080331360284670BD082070BDDE2C0020080D00200000014000E100E0044B054950
:203C600001220220C3F804231A600870704700BF00000140DE2C002010B504460020FCF728
:203C800047FB0E4A1378072B11D80D492370581C1070D1F80805012202FA03F30343C1F81D
:203CA000083500240020FCF73BFB204610BD04240020FCF735FB204610BD00BFDD2C0020A1
:203CC00000000140034B044A00F5C07043F82020704700BF000001403546526E2DE9F0412E
:203CE0000E4A0F4B16781F88F419802C03DD00242046BDE8F081DFF83080324641460546D3
:203D000009F080F9074B1B7833443A46A81958FA83F109F077F92046BDE8F081DF2C0020BE
:203D2000C62C0020C82C00200C0D002070B4134B134D144A2C781B781288234452FA83F3EA
:203D40009BB21A18802A15DC013B1BB2002B0CDB0D4A591C1E1811443244013B11F8016DAE
:203D600002F801691BB25E1CF7D120442870012070BC7047002070BC704700BFC82C0020FA
:203D8000DF2C0020C62C00200C0D0020084A138883420BDB10B407490C8880B21B1A2044A2
:203DA0000880138001205DF8044B704700207047C62C0020C82C0020014B1880704700BF15
:203DC000C62C0020044A054B12781B780448134450FA83F0704700BFC82C0020DF2C002001
:203DE0000C0D0020004870470C0D0020014B1888704700BFC62C00200549064A064B127865
:203E000008781B88104453FA80F080B2704700BFDF2C0020C82C0020C62C002010B50A4B5B
:203E20000A4C0B49002220461A605A609A60DA601A615A61FEF7D6F904F108000449BDE8FF
:203E40001040FEF7CFB900BF302D0020202D0020B8D4000004480549054A002303800B8046
:203E60001370FFF7DBBF00BFC82C0020C62C0020DF2C002070B5802982B00B4A0B4D0C4E18
:203E800001900C464FF0000328BF8024137033802B80FFF7C3FF01990648224609F0B2F8E6
:203EA00020462C8002B070BDDF2C0020C62C0020C82C00200C0D0020F0B40C4B0C4A1C68B2
:203EC0005D689F68DE68C6600460456087601C695D694561046154689068D36812680A6091
:203EE0004C608860F0BCCB60704700BF302D0020202D002070B40C4B026844688568C6684B
:203F0000DE601A605C609D60026944695C611A61064B0C6848688A68C968D9601C605860DB
:203F20009A6070BC704700BF302D0020202D0020014B23F810107047302D0020014B33F8C9
:203F400010007047302D0020024B0C3803EBC000FEF748B9202D0020024B0C3803EBC0003C
:203F6000704700BF202D002001490248FEF740B9B8D40000282D002008B5FDF715FEBDE872
:203F80000840FDF7F5BF00BF08B5FCF7D3FB05F04FFF02F001FF4FF08052064BD2F8A800EB
:203FA000D2F8A4205A604CF6F4613622D87019809A7008BD142D00200148002100F0C4B8E3
:203FC0009C02002010B5FDF791FF0446BFF35F8F00F036F900B930BFBFF35F8F2046BDE87E
:203FE0001040FDF787BF00BF0AB90020704708B508461146FDF712F9002008BD0FB400B520
:2040000083B004AA054852F8041B019204F054FE03B05DF804EB04B0704700BF14020020D9
:20402000F8B5254D2A688242044642D0002A33D0134601E0002B2FD01B689C42FAD15BB3E4
:204040001E4EA37B376853B1A36843B18C4206D000223460832104F10C0098472A68A242E0
:204060001BD02AB11368A3421DD01A46002AF9D1A37B83B12D680023A37365B1AB7B13F07A
:20408000010F284622464FF0870101D000F018F82D68002DF2D13760F8BD23682B60A37B9D
:2040A000002BE7D1F7E723681360A37B002BE1D1F1E71346C3E700BF482D00204C2D00207E
:2040C0008368BBB170B504460B4E0220A073346004F10C000D4698470238012804D9832DD5
:2040E00002D00123A37370BD21462046BDE87040FFF796BF704700BF4C2D002038B50B4AC9
:204100000B4B146800221A707CB1012501E024685CB1E37B002BFAD0E58120460022822170
:20412000FFF7CEFF2468002CF3D138BD482D0020E32C0020034B1878FF281ABF421C1A70C1
:2041400080207047E12C002070B50E4D2C68844207D00A4634B1234600E01BB11B68984283
:20416000FBD170BD0028FCD0074E04600121002334688173838181212860FFF7A1FF34606C
:2041800070BD00BF482D00204C2D0020014B8B221A707047E12C00202DE9F041234D2B7844
:2041A000FBB9234E3378BBB12248234C027802EB420704EB8701013202F01F02013B0270CF
:2041C000486854F827800F7ADBB2337060B1812F1FD0827BD2071ED428781844C0B2BDE8F8
:2041E000F081FFF78BFFDCE7144A14685CB9F3E7A37B13F0010F20464246394601D0FFF7DD
:204200005FFF24685CB12B78002BF1D0FFF776FFEEE70123837342463946FFF751FF3378C6
:2042200028781844C0B2BDE8F08100BFE32C0020E22C0020E02C00208C0D0020482D002064
:20424000034A044B10781B781844C0B2704700BFE32C0020E22C002070B40D4D2C78202C98
:2042600012D00C4B0C4E1B78234403F01F0303EB430301342C7006EB830446F823206060DE
:204280002172002070BC7047012070BC704700BFE22C0020E02C00208C0D002038B5837BC7
:2042A000034CDB07256801D5FFF70AFF256038BD4C2D002018B1837B013B012B00D9704799
:2042C000024A01231370C373704700BFE32C002010B5C38B0446002B31D0B72B1CD0002396
:2042E000E383032010BD1F4B187810F0040317D110F00100F6D01C49228B0968C88B82421E
:204300002BD9121A2283C98B236801220B44236084F82020B723E38394F82030062BE2D039
:20432000114A238B12682068D18B8B4298BF194608F070F8062384F82030002010BD52B14E
:2043400092B20283016080F82030002AE2D1002384F82030C3E7022010BD216823830A4489
:204360002260F4E74C350020583500204369008A181A80B2704700BF70B4C38B002B2FD0E6
:20438000B3F5837F26D1438B002B33D0284A294B12681B8842600222438380F82020028AAD
:2043A000002A33D01BB34268C36816781E70438B028A4568C468013B013A9BB292B20135A0
:2043C0000134B142438302824560C460E8D1838A934220D00023C3830323184670BC704747
:2043E000438B848A82680482C260002BD7D14FF48373C38390F82030022B13D00E4B1B7829
:2044000013F00203C2D1184670BC7047002BEED0838A9342DED1002380F82030C38370BCE9
:2044200018467047032380F820300023D5E700BF54350020383000204C3500200023C0E93D
:204440000211426102824383C36180F820307047FCF7DCBE10B5044608F004FE0146204676
:20446000FCF7DCFEBDE810400A20FCF7CFBE00BF08B50448FDF7E8FFBDE808400248FDF702
:20448000E3BF00BF280200201C0200200148FEF733B800BF1C02002038B50E48FDF7E6FFF1
:2044A000044678B10C48FDF7E1FF0546206058B1FFF714FC05F19A01A5F8800005F1820061
:2044C000FFF7FAFC204638BD214602482C46FDF7E9FFF7E71C02002028020020006800F1D7
:2044E0009A018230FFF7E8BC10B5014604460748FDF7F4FF00B910BD21680548FDF7D2FF28
:2045000021460248BDE81040FDF7CCBF1C0200202802002010B5014604460948FDF7DEFF76
:2045200000B910BD2468B4F880102046FFF7A2FC04F19A0104F18200BDE81040FFF7DABCAB
:204540001C020020054B064A18685968126882B06B4603C3DDE9000102B01047142D0020E8
:20456000A8D6000010B4817942790479521A224208D003464A1C00682240405C9A715DF8AA
:20458000044B70474FF0FF30F9E700BF154A164916482DE9F04190460F46FFF72FFD1448FC
:2045A000144C124EFFF756FF04F1540594F820301BB194F82130012B04D91C34AC42F5D110
:2045C000BDE8F081424639463046FFF717FD0A48FFF714FD04F11000FDF790FE0A20FFF73E
:2045E00037FFEAE780D10000F0D00000F8D0000078D50000C82E002090D5000010B5054BFE
:20460000054C01221A700021A3689847E368BDE8104018470C3800203CD600000148002112
:20462000FFF792BD5401002038B505460C4605F0D9FD8DB10F4B2868696803C3ACB12146E8
:204640000D4B51F8080F496803C3BDE8384009480122002105F08EBE0346064D59689A68D9
:204660000068DB680FC5002CE9D10449014805F0C3FFEAE78C14002094140020443000209B
:2046800010B5044C237803B110BDFFF7CDFF0123237010BDE42C002010B51D4C217882B07A
:2046A00031B31C4B002403F1540193F820201AB193F82120012A15D01C338B42F5D1204688
:2046C00005F0EAFD04B9F8B102F0B0F94023024621460020009300F081FB00F029FA002099
:2046E00002B010BD1A7CFE2A08D003F11004E3E70846FFF799FF01232370D2E75A7C802A07
:20470000DAD003F11004D7E74FF0FF30E8E700BFE42C0020C82E0020054B187B30B1B3F878
:204720004E00DB8AC01AB0FA80F04009704700BF502D00202DE9F0471A4CDFF86C809DF86B
:204740002490164607460D4620464FF4B07200219A4608F07FFCB8F82030B34205D10899FE
:204760004A46504602F0B2F910B90020BDE8F08701264FF0FF33F0214FF2F0026773E17367
:204780002673E364A4F85030A4F85820C4F8088028686968AA68EB681C340FC43046BDE8C1
:2047A000F08700BF502D002064020020437D012B01D900207047F0B590F8512090F850305D
:2047C00083B0CDE900320446028A00F13C032146007EFFF7AFFF48B3164B226A607D617F8A
:2047E000E58B5A610022666D1976618B5D83257F83F85C20A77D83F854709873207D83F81D
:204800005300E07D1982996883F855201E609D7483F852000B689847074801F079FE01F006
:20482000B3FF01F0EBFF012003B0F0BD002003B0F0BD00BF502D002094D5000008B5FFF772
:204840006BFF084B08B983F85C009B681B68984701F076FC044801F05BFEBDE8084002F0C6
:2048600027B800BF502D00209CD500000A4B93F9521093F85220002902F10102B4BFD2B236
:2048800002F07F02197B83F85220F022DA7301B97047FFF7D3BF00BF502D00202DE9F04129
:2048A0004C4D05F16400B5F84E40FCF77FFC95F85C30032B5BD0FFF72FFF804620B1AB681C
:2048C000BDE8F041DB6918476F6C434E01F060FC01F012FC686C01F08DFB03463068A5F8DC
:2048E0004E30FDF7E5FE0446002836D1002F55D0B5F84E30B5F84C209A4201D9A5F84C3083
:20490000B5F850304FF6FF7293420AD0B5F84E10914206D0CB1A002BB8BF5B42B3F5007F06
:204920003FDC95F85B30002BC9D06B6C002B3ED0002F46D001F022FE002385F85B30AB68DC
:20494000BDE8F041DB69184723681BB321463068FDF77AFE04460028C8D0204601F04AFB74
:20496000B5F84E308342EFD8C4F80080EEE7002001F0C2FB4FF6FF739C42A5F84E309ED083
:20498000164801F0C5FD01F039FFAB68BDE8F041DB691847FBF77AFF2060D7E7B5F84E307D
:2049A000ACE70F48A5F8501001F0B2FDB9E70B4885F85C3001F0ACFD01F03CFD01F01EFFA2
:2049C000BAE70123074885F85C3001F0A1FD01F001FFAFE7502D002088020020ACD50000DC
:2049E000BCD50000D4D5000030B4084D2B7B53B1044630B11C350FCD20606160A260E360BC
:204A0000012030BC7047184630BC7047502D002010B5FFF781FE134C78B994F9582094F8D9
:204A20005830002A03F10103B4BFDBB203F07F03002084F8583001F02DF9FDF7A1FB01F09B
:204A40007FFB06F095FA01F011FF94F841305B0602D40023237310BD034802F021F8002323
:204A6000237310BD502D00207C2D0020024B032283F85C2001F01CBF502D002008B50F4B84
:204A80001A7B8AB19A6C511C0ED082420DD9101AB0F5967F986407D2586C28B101F0B6FA54
:204AA000BDE8084000F092BF08BD00210322996483F85C20BDE8084001F0FABE502D002096
:204AC00010B5084C237B5BB194F840200146D20804F11C0008F088FAB0FA80F0400910BD4B
:204AE000184610BD502D002008B5FFF715FE18B1BDE80840FFF7BABE08BD00BF024B1B7B9D
:204B000003B97047FFF79ABE502D0020074B9A7B187B1AB9003818BF0120704728B193F81F
:204B20005C00012894BF002001207047502D0020024B1B7B03B97047FFF7B0BE502D0020B1
:204B40002DE9F041614D2A7B06460C462AB16A7B237E9A4209D0BDE8F081FFF7DDFD98B1D8
:204B60002B7B002BF3D1BDE8F08159481022214608F03AFA0028EED1628AEB8A9A4209D225
:204B8000BDE8F041FFF78ABE2046FFF70FFE0028E6D1E0E7E17D95F8520001F029FF628AB0
:204BA000002840D14FF6FF739A4204D095F85730013385F8573095F85210E07D01F018FFB5
:204BC00048B1B5F84E20EB8A9A4257D0FFF7A4FD074600286BD022460121304600F0DAFE3A
:204BE000E8B1304601F0C6FA0746002843D090F80680304601F0BEFA002849D0638A83800F
:204C0000637E8371AB6CABB96B8BAA7BC3EB03135B01AB641AB117B16B6C9F4217D02B7B22
:204C2000002B98D0ACE7EB8A9A42F8D1294801F06FFCF4E7002FF2D06B6C9F42EFD16B8B2D
:204C4000AA7BC3EB03135B01AB64002AE7D0607E414601F0CDFE0028E1D095F90F20EB7B02
:204C6000002A03F10103B4BFDBB203F07F03EB7301F084FCD3E74FF0F008BAE7E37D85F85F
:204C80005230FFF749FD0028A5D0FFF7EFFDA2E7304605F0C9F90028C1D00F4B01460122A4
:204CA00018682346FDF792FD0028A7D1B7E701F0DDFD384601F020FA2046FFF777FD2B7B80
:204CC000002B88D0FFF7BAFD85E700BF502D00206C2D0020E0D500008802002011B10848B2
:204CE00001F016BC10B50A460321044600F052FE20B12046BDE8104000F084BE10BD00BF44
:204D0000FCD5000038B591F823300C460546BBB1FF2B1BBF0D4A508B4FF0FF3343430A4673
:204D20000020294606F07EF818B194F92530002B00DB38BD218C2846BDE8384001F040BCAD
:204D40000A461846294606F053F8EEE7502D002070B5154D0E4695F85910044601F048FE31
:204D600008B185F8594095F85830A34200D070BD95F85C30012B76B207D001F045FC002EC9
:204D8000F5DA032385F85C3070BD002E02DA01F03BFCF6E70223054885F85C3001F0B8FBBA
:204DA000BDE8704001F030BC502D00200CD6000070B50E461C4605463AB924B11DB1064B35
:204DC000AE801B7B23B9012070BD01F0BBFBF4E7FFF764FD012070BD502D00202DE9F047D4
:204DE000284C82B094F80CC09DF828A00546174699460E46BCF1000F0AD0102204F11C00A4
:204E000008F0F2F880B34FF0F008FFF701FE01E04FF0F0083B463146CDE9009A2846012260
:204E2000FFF788FC184F194884F852800023012140F608421E263C25A173228280214FF0E0
:204E4000FF32A37484F85330A4F854300223676126766583A4F84E10A26484F85C3002B0C0
:204E6000BDE8F04701F054BB94F9523094F85280002B08F10108B4BF5FFA88F808F07F08F1
:204E8000C3E700BF502D00200004800018D6000002484FF4B072002108F0DCB8502D0020A1
:204EA000144A907918B992F82A10632901D00120704792F82910C1B992F82B30042B15D18A
:204EC0000D4B187B88B110B45C7B92F82D00A0420ED1B3F84E1082F82D000B0A43EA012385
:204EE000D38501205DF8044B70477047084670470846F7E74C300020502D002070B5174A37
:204F00000546118816482B2207F066FB04461548FFF7D6FD08B9002070BD1349002005F0BB
:204F200027FF10490646002005F022FF14B1A278032A06D00028EED0002EECD04369B3421D
:204F4000E9D1084C0FCC002148F2FE002880AA60EB606980A980E980012070BD38300020C1
:204F60004C300020643000206C2D00202DE9F04F794B7A4F19888FB038462B2207F02CFB7D
:204F800018B18378032B044603D000200FB0BDE8F08FC0780490002800F0CF806378217957
:204FA00062790133DB00DBB201F00F05A3EB12130E09083B0595C5F11005C6F110015B1BC5
:204FC00093FBF1F30133DBB29842069601918C4607934FEA1216D8D8614B0FCB0DF1280964
:204FE00089E80F006278E3780132D200D2B2961B083E761B96FBFCF60136F0B2C51AEDB211
:20500000A842029040F2A480069E0994B446059EE01B012B08BFB446011BB646019E624699
:2050200001F110039B1A06FB05414FF0000A01F108080393CCF1100200F110035646544685
:205040000893C24609EB0C0B9046039B03EB0A00B0F5A06F99D842465146584607F0D2FF8C
:20506000484605F019F900286BD0731CDEB214B9012E8AD801249DF82800FF2885D0BDF8A8
:205080002800BDF82AC040EA0C0080B2E8B9BDF82EE0BDF82C00BDF830C040EA0E00BDF80A
:2050A00032E040EA0C00BDF834C040EA0E0040EA0C00BDF836C080B250EA0C033FF465AF24
:2050C00018B9BCF5807F3FF460AF019B01359A44029BEDB2AB42B8D8099C049A079B019925
:2050E0009B1ADBB201FB03F8DDE90510089B08F10808012A18BF014643445B1AB3F5A06FF4
:2051000005913FF642AF164B059E0FCBA04489E80F00C6F1100506F1180041462A46384443
:2051200007F070FF2A46404609EB060107F06AFFE378013BE370012028E701200FB0BDE819
:20514000F08F484605F068F900288ED1044692E7E31B10330893C0E7383000204C300020FB
:2051600064300020002919DBCB0717D44378ABB92DE9F041425A40F263439A4200EB0104FB
:2051800009D11A4D2B7B33B16A7BE3789A4202D1A3789A0604D50020BDE8F08100207047B4
:2051A000A2881349170A0C20DE09D1F8008047EA0227FEF7D1FE01464046FDF7A7FAB5F8BF
:2051C0004E10A578BFB2B94294BF002101218E42C5F380131CBF45F04005A57086EA01025A
:2051E0003946BDE8F041FFF7E3BD00BF502D0020880200202DE9F0432B4E2C4F318883B095
:2052000038460DF10702012307F08CF9002842D09DF80730062B3ED0044607F10609B846D5
:2052200014E013B9A378632B16D03188E31BC91A204689B200230DF1070207F073F904460D
:2052400048B39DF80730062B814624D0112B22D03A2B20D02B2BE4D1237889F800306578E4
:205260000135ED00684207F029F9C0B13188283989B2404607F04CF93288E31B9A420EDD41
:20528000D21A6119204607F0CBFE99F800308DF80730062BDAD1012003B0BDE8F08300201D
:2052A00003B0BDE8F08300BF383000204C3000202DE9F04FA34E337B89B063B3A24C228B62
:2052C00048F2FE039A4226D0237EFF2B23D0FFF723FA054688B904F1080004F0DDFF28B1BE
:2052E0009A4BE27993F806319A4219D0FFF7D8FD0546284609B0BDE8F08F04F11809FFF77A
:2053000079FF4846FFF7DCFB28B14946002005F02FFD804688BB0125284609B0BDE8F08F97
:205320008B4F3A88B2F59F6FF6D8283A04F1280104F1300007F074FEB6F84E20A179767B19
:2053400084F82950130A43EA022340F26342E385628584F82C5084F82810A571082084F85D
:205360002D6007F0ABF83988283989B2204607F0CFF8FFF795FD0546CEE706F11C010020C9
:2053800005F0F6FC0190002848D04946002005F009FD002842D0D8F81410002900F0C48020
:2053A000019B8B4200F0C7806A4BCDF80C809B6902934FF0000B0F270DF1100A8846029BAB
:2053C000414650469847DFF898C139466046D6465246002312F8015B10F8016FAE4202D104
:2053E0000133102BF6D19F420CDAD8F814800BF10103DBB2B8F1000F15D0019A424512D01E
:205400009B46DCE700271EF8013B1CF8012F9A4206D10137102FF6D13946E6E700257BE767
:205420003946FFB2E1E7C1F11006C7F1180A16FB0BAA5FFA8AFB1AF0070A1FBFCAF1080A68
:205440005FFA8AFAD3445FFA8BFBDDF80C801D465B463F4A02931288D118B1F5A06FDDDC05
:205460003D490888283021185844283A2044039107F0D6FD03995A460846002107F0EAFD3C
:20548000A279029B84F828202B22A271B3F1080248BF03F1FF32D210304B2E4984F82920BD
:2054A000ABEB0A024FEA0A1A84F82B5084F82DA0D5180DF1100A8B69029307EB07120320F1
:2054C000574484F82A0084F82C204446DDF80480CDF804B0D346BA461F46626990452146E2
:2054E0005846A5EB060508D0B84732465146284607F088FD6469002CEFD1DA46029BDDF858
:2055000004B02146504698479AE80F0089E80F00584606F0D3FF0E4B0B481988283989B29B
:2055200006F0F6FF0125F7E608230D468A469B460F2701268DE7082300259B46AA460F2726
:20554000012686E7502D00204C300020C82E0020383000203CD60000D62C002074300020E8
:205560006330002008B50C4A137B43B10B4B0C491B88527B2C3358185B5C9A4203D0BDE8EE
:20558000084006F081BFC1788078FFF7E1FBBDE8084006F079BF00BF502D0020D62C0020F1
:2055A0004C3000202DE9F0418EB02622002104A807F050FD434B444C1F88444B217B07F189
:2055C0002C02D618D25C8DF8322011B1617B914204D006F059FF0EB0BDE8F0813C4A083382
:2055E00015880FCB2C3DED1BADB20027E846032D88E80F00CDE90477CDE90677E9D973784F
:20560000217EF2788DF835305B068DF83310ADF8302046D40424AC424FDA002720E0621C7B
:20562000AA42D6DA3219507802300444AC42D0DC052B21D10328CCDD7318DA788DF83420FB
:205640000732D210131D8342C3D10431314408A8CDE90877CDE90A7707F0D4FCAC422CDA25
:20566000335D2146002BDAD10134A542F6DA06F00BFF0EB0BDE8F081062BEFD10528A8DDFA
:20568000731813285B798DF83330E7DD0631731870589A685968DB680DF1100CACE80F0077
:2056A000DCE7132D95D904F11C001022311D07F09BFC00288DD11424ADE704A94046FFF7DF
:2056C00021FB86E7D62C0020502D00204C300020383000202DE9F0439DB05C22002105A87C
:2056E00007F0B8FC9B4B9C4F9C4A1D889C4B0C9307F1080314880FCB2C3C641BA4B201AEB8
:2057000086E80F004FF0010C964BADF824C040F60842172CADF82E200D9304D806F0B4FE7C
:205720001DB0BDE8F08305F12C03DD19AE4695F8038095F802905EF8080F95F804C0DB5D50
:20574000DEF80410DEF808208DF82C3048EA0927DEF80C30ADF826702CF07F0ECCF3C207A0
:205760008DF828E08DF8297095F8018095F805E08DF82B800CF0070C05AF182C8DF82AC058
:205780008DF82DE00FC700F0E08018216B5C002BC4D04A1CA242C1DA6A18507802304718D2
:2057A000A742BBDC023B062BB8D80FF2080C5CF823F000BFDB5800008158000025580000A7
:2057C0001D5700001D5700001D570000D15700002028A3D193788DF86430802B9ED892F8BA
:2057E00009C0D37892F80880D07A8DF8653010316B184FEA0C4C92F80AE09A684CEA086CAA
:205800004CEA000C68585968DB684CEA0E2C0DF1500ECDF860C0AEE80F00A74280F29580BC
:205820003946B3E710287FF479AF294492F807C08B7A91F8069091F8088091F80EE0D17AC7
:20584000507A41EA0321D37BADF824104CEA092C40EA08205179ADF834C0ADF8360092F883
:2058600003C01079527B8DF82EC043EA0E23ADF832308DF82F008DF830108DF83120CCE735
:2058800007287FF74BAF05EB010C53799CF804E092F802C092F807808DF84CC01B0443EAEE
:2058A0000E6392F806E0D2788DF84D200CF1070243EA0803D21043EA0E2302F1070E86457A
:2058C0001293BFF62BAFBCF1800F3FF627AF083129440EA807F096FB9FE705287FF71EAF73
:2058E000137992F803E092F802C08DF868C0D90941EA4E018DF86910C3F3011E51798DF838
:205900006AE003F00F038DF86B308DF86C10BCF1000F82D0BCF1070F0DD0BCF1020F7FF438
:20592000FDAE07287FF7FAAE9179D3798DF86E108DF86F3071E707287FF7F0AE9179D37901
:2059400043EA0123ADF86E3067E705A93046FFF7F7F8E3E6D62C00204C300020383000204D
:20596000001E3C000004800008B5084B1B7B4BB10748017EA1F1FF01B1FA81F108304909A0
:20598000FFF7ACF9BDE8084006F07EBD502D00204C300020F0B583B00E461746054604F04D
:2059A0001DFB044610B1204603B0F0BD0C20FEF7D3FA22460146CDE900672846012304F0BE
:2059C0009FFA0446204603B0F0BD00BF70B50446FFF7AEF8084B094D198809482C314B19F8
:2059E00000225A70944218BF20464A550223BDE870409B2104F0F2BFD62C00204C30002070
:205A0000B02E00202DE9F04F8BB00646FFF790F800F082FF10B1002E00F02C81974B984A6D
:205A20001B88984D2C339C18697B995495F85230637000F071FF002867D0FF23194695F84B
:205A40005320914F95F854C0A170002AE3700FCF95F80E80A0600CF0070C14BF6FF07F0EFD
:205A60004FF0000E4CEAC8074EEA070700202771EF7BE160226163616771A071E07100F0BA
:205A80004BFF002846D12B78002B43D06978A878A376CA0142EA0012E87849080243E1762C
:205AA00002200621072B22772076617600F0DB80022B40F0DF80A879EA7963772021A077A8
:205AC000E27727234FF0290809932823CDE907384FF02B092A23CDE905394FF02F0A2E235A
:205AE000CDE9033A2D222C23CDE9013222238B464FF0260C4FF030084FF0250E4FF0240950
:205B00004FF0230A0093212726E0B5F84E30190ADBB294E71F23099321222023CDE907328F
:205B2000232022232727CDE905302623CDE903374FF0250E2423CDE9013E18211A238B4676
:205B40004FF01E0C4FF028084FF01D0E4FF01C094FF01B0A00931927042060540098AA8AC4
:205B6000EB8A0E21E1554FF000072754297C099F04F80A10687CA97C04F809004FEA122AA4
:205B800004F80E1004F80CA0E255079AA968059F95F840C0180AA054089A287EA3540A8C3E
:205BA0006B8B4FEA122E04F807E0069FE255019A4FF00007A754029AA054039A190AA15496
:205BC000049AA354BCF1000F0FD100F0A5FE18B92E4B002E08BF1E464346304601229B2180
:205BE0000BB0BDE8F04F04F0F9BED5F83CE095F841A0DFF89C90082504F8085004EB0B0581
:205C0000B9E80F0085F812C04FF01E0C85F811C04FEA1E6C85F814C085F818C0CEF3074C51
:205C200085F815C085F819C00BF12009CEF3072C5FFA8EFE85F816C085F81AC085F813A0E4
:205C400085F817E085F81BE00BF11C0C04EB0905002744F80C700BF1300844F80900696016
:205C6000AA60EB60B1E7EB8860771A0A2021E377A27726E70BB0BDE8F08F00BFD62C002048
:205C80004C300020502D00206C2D0020B02E00207C2D00202DE9F041074600F0C7FE304C86
:205CA0008046606C00F0B2F90646FEF741FF237B002B52D0636C002B4FD0B8F1000F4CD05E
:205CC000002E4AD0A37B002B47D0264B264A1B88617B94F858C02C339D18002F99540CBF1D
:205CE000002380236B7005200023122180221C342871697185F803C0EA71AB70AB7103CC82
:205D0000D8F800C0D8F80420D8F808E0D8F80C80C5F808C0EA604FF0060C14226A76C5F8F8
:205D20001E00C5F82210C5F81480C5F810E0AB76EB762B776F7785F818C056F8083FA4F1CF
:205D400008007468C5F826300222C5F82A402E23BDE8F0419B2104F041BEBDE8F08100BF56
:205D6000502D0020D62C00204C300020F0B583B00E4615460190FEF7DBFE0A4B0A4A1B8896
:205D80000A490198497B2C339C1899540027042303229B21A670E570677003B0BDE8F0405A
:205DA00004F01CBED62C00204C300020502D002008B5074804F064FD064804F061FD06486B
:205DC00004F05EFDBDE80840044804F059BD00BF580200204C0200204002002034020020D2
:205DE000704700BF014B00221A707047502D002008B500F017F908B1808808BD4FF6FF70EA
:205E000008BD00BFB0B138B50446858800F00AF968B183884FF6FE722B44934207D8204604
:205E200000F000F948B18088284480B238BD4FF6FF7038BD4FF6FF7070474FF6FF70F3E743
:205E400070B50646FFF7DEFF0B4B0446586CFFF7D9FF336804F1BF05044623B9A542B4BFF8
:205E60000020012070BDFAF711FD3368C01AB0F5963FF3D9002070BD502D002088B138B5EA
:205E8000094B0446DD8AFFF7BDFFA2884FF6FF7153198B4228BF0B46984238BF184680B29A
:205EA00038BD4FF6FF707047502D002008B500F0B9F828B18088B0F5007F8CBF00200120F6
:205EC00008BD00BF10B50446FFF79CFF034620461C4600F0A7F840B18388B3F5007F05D8FE
:205EE000B4F5004F8CBF0020012010BD002010BD70B50E46F0B10446FFF7E4FF0546AEB17D
:205F00003046FFF7DFFF88B1DDB1164D6B6CA34220D09E4217D02046FFF774FF054630460A
:205F2000FFF770FF85420CD2204670BD002DFBD1002070BD0029FBD00846FFF7C3FF00285C
:205F4000F6D0304670BD2046FFF77AFF0028E2D03046F7E73046FFF773FF0028E4D16B6C43
:205F6000D7E700BF502D002010B500F03BF828B1044B9B68BDE810405B6918474FF6FF7028
:205F800010BD00BF502D002070B5044608460D46FFF7EAFF06462046FFF7E6FF86428CBF49
:205FA0002846204670BD00BF08B50C4BD3F82821824204BF0022C3F82821D3F80421824298
:205FC00004BF0022C3F80421054B01461868FCF76BFCBDE8084000F06BBC00BF502D00202B
:205FE00088020020024B01461868FCF78FBB00BF8802002020B1044B9B685B6903B1184743
:206000004FF6FF70704700BF502D002008B5044B01461868FCF7ACFCBDE8084003F0FEBFAE
:206020008802002008B5044B01461868FCF7A0FCBDE80840FBF7D6BF880200202DE9F041EF
:20604000274C237B82B000274BB3264D80462868FCF72EFB014610B34FF6FF76A3685B6960
:206060000846B3B101919847B0420199034610D0E28A82420DD8B4F814C00846BCF1000FA9
:2060800011D0B4F84C206244B24228BF3246934209DD2868FCF7D8FA01460028DED1384662
:2060A00002B0BDE8F081A3680191DB68984701990028EED0B8F1000F07D1A368019138462E
:2060C0009B69984701990746E3E708460191FFF7A9FFFBF78DFF01990028EED1D9E700BF30
:2060E000502D00208802002008B5FFF79BFFBDE80840FBF77DBF00BF70B50F4D696C814219
:2061000019D00E4E04463068FCF716FC21463068FCF7F8FB686CFFF779FF03F0C5FF03F082
:20612000A5FF2046FFF772FF002103F0D3FF01236C6485F85B3070BD502D00208802002098
:2061400038B50B4D0020FFF7D7FF2868FCF7B0FA50B104462046FFF727FF21462868FCF72A
:2061600073FA04460028F5D1BDE83840FEF7E0BC8802002008B503F031FF03F01DFF034BE5
:2061800001461868BDE80840FCF7C0BA8802002038B5FEF7C1FAF8B90546FFF74FFF04460D
:2061A000D0B1FFF73FFFFBF723FF68B90E4DD5F82831A3B16B6CA34209D00120FFF73EFF37
:2061C00038B10446204638BD074BC3F82851204638BD6B6C002BFAD10024204638BDC5F847
:2061E000284100F0D9FAE5E7502D0020024B03491868FCF707BA00BF88020020A95F0000CC
:2062000030B5144D144995F85520144B80249440A1FB0424A20983B02A665B689847104AD4
:206220002B6E12680092E40981B20E4804FB01F1A0FB012104EBD1315A1A2A6601240A4A27
:20624000A5F8564005F1A4000023FAF767FF03B030BD00BF502D0020D34D6210A8D60000EB
:206260004C2D0020018000806963000000B50D4B83B05B6898470C4B0C491B68009380B2E2
:20628000A1FB0031490A01EB8101A0EBC11081B2074A084801F5A0710023FAF73FFF03B034
:2062A0005DF804FBA8D600004C2D0020CDCCCCCC09630000342E002008B5054BD3F8040177
:2062C000FFF7A4FE18B1BDE80840FFF79BBB08BD502D002010B50B4C012384F85A30FFF786
:2062E000C5FF94F9582094F85830207E0133002AB4BFDBB203F07F0384F85830BDE8104057
:20630000FFF7C8BC502D002010B50B4C94F85A30207E013384F85A30FFF7BCFC94F85A3098
:20632000042B03D8BDE81040FFF7A0BFBDE810400248FEF7E3BB00BF502D002024D60000E1
:206340000348002290F85C1100F59670FFF70EBD502D0020024B1B7B03B97047FEF758BB24
:20636000502D0020FEF7E4BB10B582B0FEF7CEFB68B3184C94F8563073B9637C217C94F872
:2063800055200B449A42BCBF013284F8552002B0BDE81040FFF734BFFEF7BEF928B9A37C82
:2063A0001BB194F857209A4206D2B4F84E30A4F850300020FFF726FB074B216E1B680093E6
:2063C000064A0748002384F85630FAF7A7FE02B010BD00BF502D00204C2D00206963000023
:2063E000F42D002000B50E4B83B05B6898470D4B0D491B680093C0F30723A1FB033180B2D6
:206400004FF4345303FB110189B2084A084801F5B4510023FAF782FE03B05DF804FB00BF70
:20642000A8D600004C2D00200B5BB00559670000582E002000B50F4883B0FAF7D1FEB0B164
:206440000D4B5B6898470D4B0D491B68009380B2A1FB0031C90AC1EB0111A0EB012081B20F
:20646000084A044801F5F0610023FAF757FE03B05DF804FB1C150020A8D600004C2D00205F
:20648000898888888964000008B5FEF745F950B9094B1A7B42B15A6C32B1B3F84E204FF612
:2064A000FF739A4200D008BD0020FFF78FFABDE80840FFF7BFBF00BF502D002010B5124C7A
:2064C000237B43B9FFF7B6FFFEF732FBBDE810400E48FAF749BE3C20FEF7D0FA3C2004F0A7
:2064E0000DFD237B002BEDD0636C002BEAD0B4F84E204FF6FF739A42E4D0FEF719FBBDE849
:2065000010400248FAF730BE502D00203C15002010B5FEF7FBFA48B1094C94F8553013B122
:20652000627C9A4202D200F0F7F900B110BD637C84F8570084F85530BDE81040FFF760BEB3
:20654000502D002030B50A4D2B7B83B00BB903B030BD084B084A1B6800930023044619469E
:2065600005F1C400C5F80441FAF7D8FD03B030BD502D00204C2D0020B962000010B50C4C8B
:20658000237B82B08BB1A37B7BB10A4B5B689847094B0A4A1B680093C0F3080000F580714F
:2065A000002304F1E400FAF7B9FD02B010BD00BF502D0020A8D600004C2D0020D56200000F
:2065C00070B50E4C227B82B00AB902B070BD03460D469A6859680068DB68A4F85C5104F57F
:2065E00096740FC4064E074A33680093002320461946FAF793FD02B070BD00BF502D002047
:206600004C2D002041630000144B1A7B02B97047197EFF29FBD010B55C8B114B82B001FB17
:2066200004F15B68CC0198470E4B80B2A3FB00231B0BC3EB0313A0EB432080B200F5F0506B
:20664000094B0A4A1B680093844288BF241A214607480023FAF762FD02B010BD502D0020EC
:20666000A8D60000898888884C2D0020D5620000342E00202DE9F041344CFAF707F9237BD3
:20668000002B3AD0D4F8285115B12846BDE8F0810746606C18B1FFF727FD002853D02C4B78
:2066A0002C4E5B68984700EB800303EB031303EB032300EB430080B245F255539842306887
:2066C0001FD9FBF7F5FF0446B8B14FF6FF7706E021463068FBF7B8FF04460028D5D0204663
:2066E000FFF702FD0028F3D12046FFF783FC0DB1B842EDD207462546EAE700252846BDE8A6
:20670000F081FBF7D5FF04460028F6D04FF0000806E021463068FBF797FF04460028B4D060
:206720002046FFF7E1FC0028F3D12046FFF77AFC0028EED0036815B1FA1A4245E9D9A7EB5C
:2067400003082546E5E7656C9FE700BF502D0020A8D600008802002038B5FFF78BFF054664
:20676000FFF754FC30B104462846FFF75BFC2046FFF748F9034B1B7B1BB1BDE83840FFF78D
:2067800031BE38BD502D0020024B1B7B0BB1FFF729BE7047502D002010B50A4C237B82B0BD
:2067A0006BB1094B5B689847084B094A1B680093C0F30801002304F58470FAF7AFFC02B0F1
:2067C00010BD00BF502D0020A8D600004C2D00205967000010B5084C237B03B910BD04F184
:2067E0008400FAF7FDFC0028F8D104F18400BDE81040FAF7DBBC00BF502D002010B50C4CCB
:20680000237B82B00BB902B010BD04F18400FAF7E7FC0028F7D0074B074A1B68009304F17B
:20682000840000234FF41641FAF778FC02B010BD502D00204C2D00205563000000B5084B3D
:20684000084A1B68084883B04FF4F05100930023FAF764FC03B05DF804EBFFF7EBBD00BF01
:206860004C2D0020BD6400003C15002010B50F4C2046FAF79BFC04F12000FAF797FC04F151
:206880004000FAF793FC04F16000FAF78FFC04F18000FAF78BFC04F1A400FAF787FC04F178
:2068A000D800BDE81040FAF781BC00BFB42D00200848037B03B9704700B5074B074A1B6801
:2068C00083B06430009300231946FAF727FC03B05DF804FB502D00204C2D002065630000C3
:2068E000044B187B20B193F85C00003818BF0120704700BF502D0020054B187B30B193F86C
:206900005C00A0F10200B0FA80F04009704700BF502D0020704700BF014B1878704700BF4A
